:020000040000FA
:060000000A128A11F42F20
:100E8400831203130818472F482F4D2F0A128A1173
:100E9400B3270A128A1108000A128A115B270A1260
:100EA4008A110A128A116C270A128A110A128A11EB
:100EB4000028831603138501860187010D308800FD
:100EC40083120313850186018701831603178801A2
:100ED40089010800832F83120313881C722F732F38
:100EE400762FF601F7017E2F0130F6000030F7006F
:100EF4000130F0000030F1000A128A1142270A1270
:100F04008A11760877040319882F892F6D2F08001A
:100F1400FA01FB01A82FFC01FD010130FC070318B5
:100F2400FD0A0030FD077D08803AFF0080307F0213
:100F3400031D9E2FFF307C02031CA12FA22F8F2F95
:100F44000130FA070318FB0A0030FB0779087B021B
:100F5400031DAE2F78087A02031CB12FB22F8D2FF8
:100F64000800831203130816881608176D308700CB
:100F7400FA30F8000030F9000A128A118A270A129E
:100F84008A1183120313081288160817CD308700BC
:100F9400FA30F8000030F9000A128A118A270A127E
:100FA4008A11831203130812881208172830870045
:100FB400FA30F8000030F9000A128A118A270A125E
:100FC4008A1183120313081288120813FE30870053
:100FD400FA30F8000030F9000A128A118A270A123E
:100FE4008A110800F001F101F201F301F401F501A5
:0C0FF400F601F70183010A128A114E2F4A
:04400E00F5E3FFFFD8
:00000001FF
